{
  "contractName": "CommitReveal",
  "abi": [
    {
      "inputs": [
        {
          "internalType": "uint256",
          "name": "_phaseLengthInSeconds",
          "type": "uint256"
        },
        {
          "internalType": "string",
          "name": "_choice1",
          "type": "string"
        },
        {
          "internalType": "string",
          "name": "_choice2",
          "type": "string"
        }
      ],
      "stateMutability": "nonpayable",
      "type": "constructor"
    },
    {
      "anonymous": false,
      "inputs": [
        {
          "indexed": false,
          "internalType": "bytes32",
          "name": "commit",
          "type": "bytes32"
        }
      ],
      "name": "NewVoteCommit",
      "type": "event"
    },
    {
      "anonymous": false,
      "inputs": [
        {
          "indexed": false,
          "internalType": "bytes32",
          "name": "commit",
          "type": "bytes32"
        },
        {
          "indexed": false,
          "internalType": "string",
          "name": "choice",
          "type": "string"
        }
      ],
      "name": "NewVoteReveal",
      "type": "event"
    },
    {
      "inputs": [],
      "name": "choice1",
      "outputs": [
        {
          "internalType": "string",
          "name": "",
          "type": "string"
        }
      ],
      "stateMutability": "view",
      "type": "function",
      "constant": true
    },
    {
      "inputs": [],
      "name": "choice2",
      "outputs": [
        {
          "internalType": "string",
          "name": "",
          "type": "string"
        }
      ],
      "stateMutability": "view",
      "type": "function",
      "constant": true
    },
    {
      "inputs": [],
      "name": "commitPhaseEndTime",
      "outputs": [
        {
          "internalType": "uint256",
          "name": "",
          "type": "uint256"
        }
      ],
      "stateMutability": "view",
      "type": "function",
      "constant": true
    },
    {
      "inputs": [],
      "name": "numberOfVotesCast",
      "outputs": [
        {
          "internalType": "uint256",
          "name": "",
          "type": "uint256"
        }
      ],
      "stateMutability": "view",
      "type": "function",
      "constant": true
    },
    {
      "inputs": [
        {
          "internalType": "uint256",
          "name": "",
          "type": "uint256"
        }
      ],
      "name": "voteCommits",
      "outputs": [
        {
          "internalType": "bytes32",
          "name": "",
          "type": "bytes32"
        }
      ],
      "stateMutability": "view",
      "type": "function",
      "constant": true
    },
    {
      "inputs": [
        {
          "internalType": "bytes32",
          "name": "",
          "type": "bytes32"
        }
      ],
      "name": "voteStatuses",
      "outputs": [
        {
          "internalType": "string",
          "name": "",
          "type": "string"
        }
      ],
      "stateMutability": "view",
      "type": "function",
      "constant": true
    },
    {
      "inputs": [],
      "name": "votesForChoice1",
      "outputs": [
        {
          "internalType": "uint256",
          "name": "",
          "type": "uint256"
        }
      ],
      "stateMutability": "view",
      "type": "function",
      "constant": true
    },
    {
      "inputs": [],
      "name": "votesForChoice2",
      "outputs": [
        {
          "internalType": "uint256",
          "name": "",
          "type": "uint256"
        }
      ],
      "stateMutability": "view",
      "type": "function",
      "constant": true
    },
    {
      "inputs": [
        {
          "internalType": "bytes32",
          "name": "voteCommit",
          "type": "bytes32"
        }
      ],
      "name": "commitVote",
      "outputs": [],
      "stateMutability": "nonpayable",
      "type": "function"
    },
    {
      "inputs": [
        {
          "internalType": "string",
          "name": "vote",
          "type": "string"
        },
        {
          "internalType": "bytes32",
          "name": "voteCommit",
          "type": "bytes32"
        }
      ],
      "name": "revealVote",
      "outputs": [],
      "stateMutability": "nonpayable",
      "type": "function"
    },
    {
      "inputs": [],
      "name": "getWinner",
      "outputs": [
        {
          "internalType": "string",
          "name": "winner",
          "type": "string"
        }
      ],
      "stateMutability": "view",
      "type": "function",
      "constant": true
    },
    {
      "inputs": [],
      "name": "getVoteCommitsArray",
      "outputs": [
        {
          "internalType": "bytes32[]",
          "name": "",
          "type": "bytes32[]"
        }
      ],
      "stateMutability": "view",
      "type": "function",
      "constant": true
    }
  ],
  "bytecode": "0x608060405260006005553480156200001657600080fd5b506040516200118838038062001188833981810160405260608110156200003c57600080fd5b8151602083018051604051929492938301929190846401000000008211156200006457600080fd5b9083019060208201858111156200007a57600080fd5b82516401000000008111828201881017156200009557600080fd5b82525081516020918201929091019080838360005b83811015620000c4578181015183820152602001620000aa565b50505050905090810190601f168015620000f25780820380516001836020036101000a031916815260200191505b50604052602001805160405193929190846401000000008211156200011657600080fd5b9083019060208201858111156200012c57600080fd5b82516401000000008111828201881017156200014757600080fd5b82525081516020918201929091019080838360005b83811015620001765781810151838201526020016200015c565b50505050905090810190601f168015620001a45780820380516001836020036101000a031916815260200191505b506040525050506014831015620001ed5760405162461bcd60e51b815260040180806020018281038252602c8152602001806200115c602c913960400191505060405180910390fd5b42830160045581516200020890600090602085019062000228565b5080516200021e90600190602084019062000228565b50505050620002d4565b828054600181600116156101000203166002900490600052602060002090601f016020900481019282620002605760008555620002ab565b82601f106200027b57805160ff1916838001178555620002ab565b82800160010185558215620002ab579182015b82811115620002ab5782518255916020019190600101906200028e565b50620002b9929150620002bd565b5090565b5b80821115620002b95760008155600101620002be565b610e7880620002e46000396000f3fe608060405234801561001057600080fd5b50600436106100b45760003560e01c806387cfa5bf1161007157806387cfa5bf146102775780638e7ea5b21461027f578063a619350414610287578063baa13bb51461028f578063bf9d069814610297578063fd5bd01d146102b4576100b4565b8063031b6dbf146100b95780630bbfc206146100d357806322ce9bac1461017d5780633a2a2cc5146101855780633e858923146101dd57806349e811c5146101fa575b600080fd5b6100c16102d1565b60408051918252519081900360200190f35b61017b600480360360408110156100e957600080fd5b81019060208101813564010000000081111561010457600080fd5b82018360208201111561011657600080fd5b8035906020019184600183028401116401000000008311171561013857600080fd5b91908080601f01602080910402602001604051908101604052809392919081815260200183838082843760009201919091525092955050913592506102d7915050565b005b6100c16106e9565b61018d6106ef565b60408051602080825283518183015283519192839290830191858101910280838360005b838110156101c95781810151838201526020016101b1565b505050509050019250505060405180910390f35b61017b600480360360208110156101f357600080fd5b5035610748565b610202610911565b6040805160208082528351818301528351919283929083019185019080838360005b8381101561023c578181015183820152602001610224565b50505050905090810190601f1680156102695780820380516001836020036101000a031916815260200191505b509250505060405180910390f35b61020261099f565b6102026109f9565b6100c1610bbb565b6100c1610bc1565b6100c1600480360360208110156102ad57600080fd5b5035610bc7565b610202600480360360208110156102ca57600080fd5b5035610be8565b60035481565b60008181526007602090815260409182902080548351601f600260001961010060018616150201909316929092049182018490048402810184019094528084526060939283018282801561036c5780601f106103415761010080835404028352916020019161036c565b820191906000526020600020905b81548152906001019060200180831161034f57829003601f168201915b505050505090508051600014156103b45760405162461bcd60e51b8152600401808060200182810382526029815260200180610cf26029913960400191505060405180910390fd5b806000815181106103c157fe5b6020910101516001600160f81b031916604360f81b14610428576040805162461bcd60e51b815260206004820152601f60248201527f5468697320766f74652077617320616c72656164792072657665616c65642e00604482015290519081900360640190fd5b826040516020018082805190602001908083835b6020831061045b5780518252601f19909201916020918201910161043c565b6001836020036101000a0380198251168184511680821785525050505050509050019150506040516020818303038152906040528051906020012082146104d35760405162461bcd60e51b8152600401808060200182810382526025815260200180610d816025913960400191505060405180910390fd5b6060839050806000815181106104e557fe5b6020910101516001600160f81b031916603160f81b14156105c3576002805460019081018255604080518681526020810182815260008054948516156101000260001901909416949094049181018290527f69ab1b0836124ec1de36500cc76e0bcd684f01f02d992b7b26f6ad222a2ddf21938793926060830190849080156105af5780601f10610584576101008083540402835291602001916105af565b820191906000526020600020905b81548152906001019060200180831161059257829003601f168201915b5050935050505060405180910390a16106a7565b806000815181106105d057fe5b6020910101516001600160f81b031916601960f91b141561067057600380546001908101909155604080518581526020810182815283546002600019610100838816150201909116049282018390527f69ab1b0836124ec1de36500cc76e0bcd684f01f02d992b7b26f6ad222a2ddf21938793909291906060830190849080156105af5780601f10610584576101008083540402835291602001916105af565b60405162461bcd60e51b815260040180806020018281038252604c815260200180610dd6604c913960600191505060405180910390fd5b604080518082018252600881526714995d99585b195960c21b6020808301918252600087815260079091529290922090516106e29290610c50565b5050505050565b60055481565b6060600680548060200260200160405190810160405280929190818152602001828054801561073d57602002820191906000526020600020905b815481526020019060010190808311610729575b505050505090505b90565b60045442106107885760405162461bcd60e51b8152600401808060200182810382526030815260200180610da66030913960400191505060405180910390fd5b60008181526007602090815260409182902080548351601f600260001961010060018616150201909316929092049182018490048402810184019094528084526060939283018282801561081d5780601f106107f25761010080835404028352916020019161081d565b820191906000526020600020905b81548152906001019060200180831161080057829003601f168201915b5050505050905080516000146108645760405162461bcd60e51b8152600401808060200182810382526021815260200180610e226021913960400191505060405180910390fd5b60068054600181019091557ff652222313e28459528d920b65115c16c04f3efc82aaedc97be59f3f377c0d3f01829055604080518082018252600981526810dbdb5b5a5d1d195960ba1b6020828101918252600086815260079091529290922090516108d09290610c50565b506005805460010190556040805183815290517f336dd6fa514fe196ac01f0e19a495fc73b7885d9357f993cf52e4919f70db0999181900360200190a15050565b6000805460408051602060026001851615610100026000190190941693909304601f810184900484028201840190925281815292918301828280156109975780601f1061096c57610100808354040283529160200191610997565b820191906000526020600020905b81548152906001019060200180831161097a57829003601f168201915b505050505081565b60018054604080516020600284861615610100026000190190941693909304601f810184900484028201840190925281815292918301828280156109975780601f1061096c57610100808354040283529160200191610997565b60606004544211610a3b5760405162461bcd60e51b8152600401808060200182810382526036815260200180610d4b6036913960400191505060405180910390fd5b6006546003546002540114610a815760405162461bcd60e51b8152600401808060200182810382526030815260200180610d1b6030913960400191505060405180910390fd5b6003546002541115610b1f576000805460408051602060026001851615610100026000190190941693909304601f81018490048402820184019092528181529291830182828015610b135780601f10610ae857610100808354040283529160200191610b13565b820191906000526020600020905b815481529060010190602001808311610af657829003601f168201915b50505050509050610745565b6002546003541115610b855760018054604080516020600284861615610100026000190190941693909304601f81018490048402820184019092528181529291830182828015610b135780601f10610ae857610100808354040283529160200191610b13565b6003546002541415610745575060408051808201909152600d81526c4974207761732061207469652160981b6020820152610745565b60045481565b60025481565b60068181548110610bd757600080fd5b600091825260209091200154905081565b60076020908152600091825260409182902080548351601f6002600019610100600186161502019093169290920491820184900484028101840190945280845290918301828280156109975780601f1061096c57610100808354040283529160200191610997565b828054600181600116156101000203166002900490600052602060002090601f016020900481019282610c865760008555610ccc565b82601f10610c9f57805160ff1916838001178555610ccc565b82800160010185558215610ccc579182015b82811115610ccc578251825591602001919060010190610cb1565b50610cd8929150610cdc565b5090565b5b80821115610cd85760008155600101610cdd56fe4120766f74652077697468207468697320766f7465436f6d6d697420776173206e6f7420636173742e43616e206f6e6c79206765742077696e6e6572207768656e20616c6c20766f746573206172652072657665616c65642e4f6e6c7920616c6c6f77656420746f206765742077696e6e657220616674657220636f6d6d6974207068617365206973206f7665722e566f7465206861736820646f6573206e6f74206d6174636820766f746520636f6d6d69742e4f6e6c7920616c6c6f77656420746f20636f6d6d697420647572696e6720636f6d6d697474696e6720706572696f642e566f746520636f756c64206e6f7420626520726561642120566f746573206d7573742073746172742077697468207468652041534349492063686172616374657220603160206f72206032605468697320636f6d6d69742068617320616c7265616479206265656e2075736564a26469706673582212203d7c2c0128248c13f01290ca95d4d1d25194579030e9bcadb6b21b4070148b2964736f6c63430007050033436f6d6d69742070686173652063616e6e6f74206265206c657373207468616e203230207365636f6e64732e",
  "immutableReferences": {},
  "source": "// File: contracts\\CommitReveal.sol\r\n\r\n\r\n\r\npragma solidity 0.7.5;\r\n\r\n\r\ncontract CommitReveal {\r\n    // The two choices for your vote. Note that these are just symbolic and for display purposes only. \r\n    // In practice, the user \r\n    string public choice1;\r\n    string public choice2;\r\n    \r\n    // Information about the current status of the vote\r\n    uint256 public votesForChoice1;\r\n    uint256 public votesForChoice2;\r\n    uint256 public commitPhaseEndTime;\r\n    uint256 public numberOfVotesCast = 0;\r\n\r\n    // The actual votes and vote commits\r\n    bytes32[] public voteCommits;\r\n    mapping(bytes32 => string) public voteStatuses; // Either `Committed` or `Revealed`\r\n    \r\n    // Events used to log what's going on in the contract\r\n    event NewVoteCommit(bytes32 commit);\r\n    event NewVoteReveal(bytes32 commit, string choice);\r\n    \r\n    // Constructor used to set parameters for the this specific vote\r\n    constructor(\r\n        uint256 _phaseLengthInSeconds, \r\n        string memory _choice1, \r\n        string memory _choice2\r\n    ) {\r\n        require(\r\n            _phaseLengthInSeconds >= 20,\r\n            \"Commit phase cannot be less than 20 seconds.\"\r\n        );\r\n        commitPhaseEndTime = block.timestamp + _phaseLengthInSeconds;\r\n        choice1 = _choice1;\r\n        choice2 = _choice2;\r\n    }\r\n\r\n    modifier onlyDuringCommitPhase() {\r\n        require(\r\n            block.timestamp < commitPhaseEndTime,\r\n            \"Only allowed to commit during committing period.\"\r\n        );\r\n        _;\r\n    }\r\n\r\n    modifier onlyAfterCommitPhase() {\r\n        require(\r\n            block.timestamp > commitPhaseEndTime,\r\n            \"Only allowed to get winner after commit phase is over.\"\r\n        );\r\n        _;\r\n    }\r\n\r\n    modifier onlyWhenAllVotesAreCounted() {\r\n        require(\r\n            votesForChoice1 + votesForChoice2 == voteCommits.length,\r\n            \"Can only get winner when all votes are revealed.\"\r\n        );\r\n        _;\r\n    }\r\n    \r\n    function commitVote(bytes32 voteCommit) public onlyDuringCommitPhase {\r\n        // Check if this commit has been used before\r\n        bytes memory bytesVoteCommit = bytes(voteStatuses[voteCommit]);\r\n        require(\r\n            bytesVoteCommit.length == 0,\r\n            \"This commit has already been used\"\r\n        );\r\n        \r\n        // We are still in the committing period & the commit is new so add it\r\n        voteCommits.push(voteCommit);\r\n        voteStatuses[voteCommit] = \"Committed\";\r\n        numberOfVotesCast++;\r\n\r\n        emit NewVoteCommit(\r\n            voteCommit\r\n        );\r\n    }\r\n    \r\n    function revealVote(string memory vote, bytes32 voteCommit) public {\r\n        // FIRST: Verify the vote & commit is valid\r\n        bytes memory bytesVoteStatus = bytes(voteStatuses[voteCommit]);\r\n        if (bytesVoteStatus.length == 0) {\r\n            revert(\"A vote with this voteCommit was not cast.\");\r\n        } else if (bytesVoteStatus[0] != \"C\") {\r\n            revert(\"This vote was already revealed.\");\r\n        }\r\n\r\n        if (voteCommit != keccak256(abi.encodePacked(vote))) {\r\n            revert(\"Vote hash does not match vote commit.\");\r\n        }\r\n        \r\n        // NEXT: Count the vote!\r\n        bytes memory bytesVote = bytes(vote);\r\n        if (bytesVote[0] == \"1\") {\r\n            votesForChoice1 = votesForChoice1 + 1;\r\n            emit NewVoteReveal(voteCommit, choice1);\r\n        } else if (bytesVote[0] == \"2\") {\r\n            votesForChoice2 = votesForChoice2 + 1;\r\n            emit NewVoteReveal(voteCommit, choice2);\r\n        } else {\r\n            revert(\"Vote could not be read! Votes must start with the ASCII character `1` or `2`\");\r\n        }\r\n        voteStatuses[voteCommit] = \"Revealed\";\r\n    }\r\n    \r\n    function getWinner() \r\n        public \r\n        view \r\n        onlyAfterCommitPhase\r\n        onlyWhenAllVotesAreCounted \r\n        returns (string memory winner) \r\n    {    \r\n        if (votesForChoice1 > votesForChoice2) {\r\n            return choice1;\r\n        } else if (votesForChoice2 > votesForChoice1) {\r\n            return choice2;\r\n        } else if (votesForChoice1 == votesForChoice2) {\r\n            return \"It was a tie!\";\r\n        }\r\n    }\r\n\r\n    function getVoteCommitsArray() public view returns (bytes32[] memory) {\r\n        return voteCommits;\r\n    }\r\n}\r\n",
  "sourcePath": "H:/downloads/solidity/solidity-assignment/contracts/CommitReveal.sol",
  "compiler": {
    "name": "solc",
    "version": "0.7.5+commit.eb77ed08.Emscripten.clang"
  },
  "schemaVersion": "3.4.1",
  "updatedAt": "2021-06-21T21:40:08.861Z",
  "networkType": "ethereum",
  "devdoc": {
    "kind": "dev",
    "methods": {},
    "version": 1
  },
  "userdoc": {
    "kind": "user",
    "methods": {},
    "version": 1
  }
}